:1000000029C0000038C0000035C0000033C0000027
:1000100031C000002FC000002DC000002BC0000028
:1000200029C0000027C0000025C0000023C0000038
:1000300021C000001FC000001DC000001BC0000048
:1000400019C0000017C0000015C0000013C0000058
:1000500011C0000011241FBECFE5D4E0DEBFCDBF2C
:1000600020E0A0E6B0E001C01D92A236B207E1F7A1
:1000700025D030C0C5CF1F920F920FB60F9211241A
:100080008F939F93809160009091610001968F3FC4
:10009000910509F02CF4909361008093600004C0F6
:1000A0001092610010926000809160008BBB9F9164
:1000B0008F910F900FBE0F901F9018958FEF8ABBF6
:1000C00011BA82BB8BB780648BBF85B7836085BF55
:0800D0007894FFCFF894FFCFF4
:00000001FF
