:1000000025C0FECFFDCF51C0FBCFFACFF9CFF8CF3F
:10001000F7CFF6CFF5CFF4CFF3CFF2CFF1CFF0CFCC
:10002000EFCFEECFEDCF20222A2B2C5B3D5D7C7FE6
:100030000000303A2F312E7478740000010009005E
:100040004E03320001005B033C000000F894EE27F1
:10005000ECBBF1E0FBBFEBBFE5BFF8E1F1BDE1BDFB
:100060008DE0A2E0BB27ED938A95E9F780E094E06C
:10007000A0E6ED930197E9F7EEE3F0E08591959125
:10008000009761F0A591B59105901590BF01F00121
:1000900005900D920197E1F7FB01F0CFEFE5EDBF81
:1000A000E4E0EEBFCEE4D3E01CC00A921A92FA92CA
:1000B0006A937A938A939A93AA93BA93EA93FA9358
:1000C000EFB7EA9368D2E991EFBFF991E991B9915D
:1000D000A9919991899179916991F99019900990D3
:1000E0001895EF976197D250E0E0E2BBE1E0E1BB09
:1000F000E0E0E2BDEFE0E5BDE0E0E4BDE4E6E3BD65
:10010000E0E8E9BF7894A8EEB3E029DAA0E008D1EE
:10011000E0E0EA93DE019F960AD7BED8EEE4F3E072
:10012000C0D8A1E02AD7B8D8FE013296BAD8E2E00A
:10013000F0E0B7D8ADB7BEB711971F930F9384D730
:100140000F911F91DE01549697D8A881A13311F425
:10015000909A09C0909AA8ECB0E001DA9098A8ECC7
:10016000B0E0FDD9F7CFFFCFFFCF1A93E2E3E093E2
:100170005D03EFEFEFB9779BFECFEFEFEFB9779B22
:10018000FECF1FB11F3F21F0E0915D03E03009F485
:1001900001C0F3CFE12F19910895C29AEFEFEFB9A3
:1001A000779BFECF0895BA93AA93CBDAEAE0E09367
:1001B0005C03EFEFEFB9779BFECF1FB11F3F21F438
:1001C000E0915C03E03009F401C0F3CF1E3F11F071
:1001D000E0E030C52E813F81EFEFEFB9779BFECF96
:1001E0003F932F932F5F3F4FEFB1AF91BF91EC93B0
:1001F000EFEFEFB9779BFECF3F932F932F5F3F4FEA
:10020000EFB1AF91BF91EC93EFEFEFB9779BFECFDA
:100210003F932F932F5F3F4FEFB1AF91BF91EC937F
:10022000EFEFEFB9779BFECF3F932F932F5F3F4FB9
:10023000EFB1AF91BF91EC93EC81FD813497EC83EA
:10024000FD8351F6EFEFEFB9779BFECFEFEFEFB9FC
:10025000779BFECFE1E0EEC44CDA75DAEE81E07810
:1002600069F0EE81EF77EE83E7E7EA93A0E0B0E094
:1002700080E090E0F1DF0E2F0230D8F5C29AC298EC
:1002800074DFEF3F11F0EFEF35C0EE81EFB9779BF0
:10029000FECFED81EFB9779BFECFEC81EFB9779B75
:1002A000FECFEB81EFB9779BFECFEA81EFB9779B69
:1002B000FECF11E0AE81A03411F415E904C0AE8187
:1002C000A83409F417E81FB9779BFECFAE81AC3490
:1002D00021F4EFEFEFB9779BFECF1FEFEFEFEFB910
:1002E000779BFECF0FB107FF02C0115009F401C088
:1002F000F5CFE02F2FDA27960895BA93AA931A9391
:1003000014E0EFEFEFB9779BFECFA981BA81119688
:10031000A983BA831197EFB1EC93115091F7B9C744
:10032000AA9324970EDAE885E03019F0E1E010DABC
:100330005EC3A198A098EAE0E0935C03E0915C03BF
:10034000E030E1F7E0915B03E27021F0E0915B03C4
:10035000FFD94DC3BA9AC29AE8B3E77DE8BBC49A05
:10036000BC98E7B3EC62E7BBE2E5EDB9E0E0EEB9DB
:100370003FEF1AE0EFEFEFB9779BFECF1150D1F7C7
:10038000E0E4EA93A0E0B0E080E090E065DF0E2FCB
:100390003150013011F0303009F401C0EACF30E0C3
:1003A000013009F068C0E4E6E0935C03E8E4EA9316
:1003B000AAEAB1E080E090E04FDFE13091F5DE01A4
:1003C00014969BDFAE81A13019F4AF81AA3A09F0EF
:1003D00027C0E0915C03E03049F0E9EEEA93A0E049
:1003E000B0E080E090E438DFE03009F401C0F1CF04
:1003F000E0915C03E03049F0EAE7EA93A0E0B0E086
:1004000080E090E029DFE03009F00AC0DE011496B8
:1004100074DFEC81E07411F0ECE001C0E4E03E2F09
:100420002AC0E9EEEA93A0E0B0E080E090E014DFBB
:10043000E23018F432E009EE02C031E001E4E0916C
:100440005C03E03041F00A93A0E0B0E080E090E08F
:1004500003DFE03009F401C0F2CFE0915C03E0304B
:1004600049F0E0E5EA93A0E0B2E080E090E0F4DE5D
:10047000E03009F030E030935E038FDE303041F041
:10048000E0915B03EE7FE0935B03E0E5EDB911C023
:10049000C2986BDE82DEE0E0EDB9E7B3E37CE7BB58
:1004A000E8B3E37CE8BBBA98E0915B03E160E093DA
:1004B0005B03E0915B034CD99AC2AA93E881E030D8
:1004C00011F0E1E002C0E0915B0321960895AA9348
:1004D000EF81E03019F4E881E03011F4E4E0ABC3DF
:1004E000E0915B03E17011F0E3E0A5C3E0915E03EE
:1004F000E87069F4E981FA816B817C81A0E0B2E067
:1005000080E090E06BD8E983FA836B837C83A881D9
:10051000A130B1F4E1E5EA93AA81BB818C819D8190
:100520009BDEE03049F4ED81FE81FA93EA93A0E08E
:10053000B2E039DEE03009F402C0E0E0E88323C035
:10054000E2E5EA93AA81BB818C819D8185DEE03062
:10055000D1F4ED81FE81FA93EA93A0E0B2E023DECC
:10056000E03051F0ED81FE81E050FE4FED83FE83DF
:10057000E881E150E88369F7ECE4EA93A0E0B0E0B9
:1005800080E090E069DE09DEE881E03011F0E1E032
:1005900001C0E0E050C3D7D810915C03103019F0CF
:1005A000115010935C0310915D03103019F011503D
:1005B00010935D0310915F03E3B3E170AE2FE3B3DB
:1005C000E270EA2BE0935F03E11781F400915B0393
:1005D000E17011F0046001C00B7FE0915F03E270F5
:1005E00011F0036001C00D7F00935B03B6D808953E
:1005F0005BD6A7D8088519852E813F8158D63197BB
:10060000EC83FD83319661F01F930F930F5F1F4FB3
:10061000D9012F5F3F4FEC91AF91BF91EC93EECF9B
:1006200097D877C141D68FD80E811F8143D6319795
:10063000EA83FB83319649F01F930F930F5F1F4F9F
:10064000EC81AF91BF91EC93F1CF84D8F4C22CD65A
:1006500076D80A851B852885398540E050E02DD65F
:1006600031972ED6319681F0D8010F5F1F4F0C9035
:100670001124D9012F5F3F4FAC91BB27F001EA1B3A
:10068000FB0BAF01309709F001C0E9CFFA015ED84A
:100690002C96089509D60ED6E491E03041F00AD6A2
:1006A000A491E881F981B0E0EA17FB0709F405C0DD
:1006B00001D63196EA83FB83EECFFCD5E491F0E0DE
:1006C00034C417D824971A93A985BA855E96E8D7BB
:1006D000E983FA836B837C83F6D5A981BA818B8108
:1006E0009C8123D8A9F0EFD516D891F0E985FA8539
:1006F000A181AA93EA85FB85B296D3D5E9D5EDD53C
:1007000011F0E1E006C0DFD5A985BA855E96D3D7A2
:10071000E0E018812B960895ECD7249712D8E2D503
:10072000E6D530F0ECD51E96BBD7DCD503D828F043
:10073000E1E0F0E060E070E057C0E1D55296B0D75C
:10074000EC83FD836E837F83DAD5EC91F0E0E130BA
:10075000A0E0FA0709F528853985F901F695E795AE
:100760002E0F3F1FCFD5E1F5DED50C9111272F5F5E
:100770003F4FC8D5A9F5D7D5EC91FE2FE0E00E2B61
:100780001F2BE885E17019F0F80115D702C0F801B8
:10079000FF706627772728C0E230A0E0FA0761F4EF
:1007A000C9D5E0E0F1E060E070E0CCD5C9F4D3D584
:1007B000E2E0D4D5DAD518C0E330A0E0FA0781F43E
:1007C000B9D5E0E8F0E060E070E0BCD549F4C3D50D
:1007D000E4E0C4D565D7EF7FFF7F6F7F7F7004C0F3
:1007E000EFEFFFEF6FEF7FEFB3D72E96089581D72E
:1007F0006CD7E250F0406040704071D758D5B9D501
:10080000E2E0F0E060E070E079D7BDD6B7D592D7EE
:1008100010F0B6D53FC24BD5B8D5B0D5DAD6DED6B6
:100820007F936F93FF93EF93B3D55A9639D7AF91D8
:10083000BF918F919F919DD62DC236D5249783D796
:100840003CD5A885B9851496ED93FC9384D516966E
:10085000A2D5A7D5A130E0E0BE07E0E08E07E0E03A
:100860009E0719F0A3D5A5D510F0E2E051C0A7D599
:1008700021F49CD5A081A33009F004C097D57696C9
:10088000DF0189D59CD579F4A0D53896DF0104D74E
:10089000A5D5AE17BF0710F0E2E03AC087D576962F
:1008A000DF01FED620C082D5E281A0E1EA9F80016F
:1008B00095D5A017B107A0F079D593D598D59DD53A
:1008C00011F4E1E025C06DD512D518F06FD571D5C2
:1008D00010F0E2E01DC0F1D4E01BF10BF1D4E8CF41
:1008E00074D57FD584DFDF01CB01E7D464D68DD505
:1008F00040D6A885B9851E96DED658D5B296DF01BA
:10090000DCD486D5A885B9855296ED93FC93E0E0BA
:1009100021D72A960895AA93249715D780D514969F
:10092000BBD631968F01002E012A29F078D51E966C
:10093000B7D6F1D611F4E4E059C0F801EF7009F030
:1009400044C06DD51E96B2D6EF5FFF4F6F4F7F4FFD
:10095000B7D665D51A96A4D6DED651F463D53896A7
:10096000DF019AD60E171F0710F0E4E03FC02DC03C
:10097000F80121D60F0156D508D53197E021F12194
:10098000309719F54FD58DD4E985FA854ED52FD5F9
:10099000AED410F4E2E02AC004D52FD511F4E1E082
:1009A00025C040D506D510F0E4E020C0EA81FB81E7
:1009B0006C817D81AF81B8851A967DD633D511D5EE
:1009C00016DFAF81B8851E9676D6F801AF81B8855F
:1009D0001496ED93FC9326D5B296DF01F80118D555
:1009E000AF81B8855296ED93FC93E0E0B3D629969B
:1009F00008955AD4A6D65BD41DD5B0E01EDF1DD510
:100A000019F0E12FA5D646C1C3D41AD556D4B1D416
:100A100058DE13D509F5BCD452962D913C91D901DD
:100A20000C91003011F414E017C0F901E385E8706F
:100A300059F43A932A9341D4A489B58935D4ABE0CB
:100A4000B0E005DE309709F001C006C030D4F2D422
:100A500062DF1E2F1030C1F2E12F7AD61BC124D4E1
:100A600025976DD6AD85BE8554964D915C915A9370
:100A70004A93E0E2F0E015D4ABE0B0E0D3DDE0E093
:100A8000E887E9871E2F2E2FE8E0EA87AB85BC8533
:100A900003D616D4D7D43196E887F98731979ED4F8
:100AA000AE0FBF1F0C91013220F00F3211F00C3548
:100AB00009F432C00E3219F0EA852E1768F0AA85C3
:100AC000A83011F40E3211F0E6E050C028E0EBE05F
:100AD000EA87110F110F1FC0003818F01360E6E00D
:100AE00045C0E6E2F0E0DDD3A02FBB27D3DD309791
:100AF00011F0E6E03BC0013410F00B3508F002C005
:100B0000126007C0013610F00B3708F002C0116008
:100B100000529BD40083BECF95D460D4EA0FFB1F54
:100B2000AB85BC8598D4013210F4E4E001C0E0E06C
:100B30000E2F203011F4E6E019C0DA01AC91A53E89
:100B400019F4DA01E5E0EC93AA85A83011F4110F4D
:100B5000110FE12FE370E13009F40061E12FEC7037
:100B6000E43009F40860FA010387E0E0EFD52F963E
:100B700008959AD3E6D5E1E0E03021F009D4AC91B4
:100B8000A03209F002C06AD4F6CF02D4AC91AF32E1
:100B900021F0FED3AC91AC3509F460D41FD4169685
:100BA00062D4F6D3AC91BB27909748F486D342D455
:100BB000B0E043DE1E2F12D4529658D43AC059D416
:100BC000DE0116964CDF39D4A1F508D412DF1E2FB2
:100BD00005D4549661D5E385E4700E2F103039F0BA
:100BE000143011F4003009F001C015E022C00030CB
:100BF00001F5F4D352962D913C91F901E385E07112
:100C000011F415E016C0D9015496AFD3DDD47F930B
:100C10006F93FF93EF93D9015A963ED5AF91BF9151
:100C20008F919F91F2D3B9D4AE81BF81169643D5EF
:100C3000C6CFE12F8DD5289608955BD538D3A181F5
:100C4000AA93ED81FE81B2962CD3EB81FC816D815C
:100C50007E8143D311F0E3E01DC029D3B296E25068
:100C6000FE4FDF0119D5E535AAEAFA0711F0E2E0F7
:100C700011C08ED3A85ABF4FFED311F4E0E00AC0D2
:100C800016D3B296EE5AFF4FDF01F5D311F4E0E030
:100C900001C0E1E026960895AA93649750D5AD8DE2
:100CA000BE8DFAD4E887F98756D3EC91E0530E2F26
:100CB0000A3028F450D31196AC91AA3309F009C038
:100CC000C1D33296E887F987BDD3AD8DBE8DC3D32E
:100CD00001C000E0013010F0EBE009C1E02FD8D3F3
:100CE000DBD4EED2AB8DBC8DB6D3E7D2309711F406
:100CF000ECE0FDC073D3EC91E03031F0DED2A181A5
:100D0000DCDB5E2F50FFF2C069D3CAD3E02FAE8187
:100D1000BF811196EC93D1D2A18102DB5E2F50FFEF
:100D200002C0E3E0E4C0A5D32BD3E88FF98F6A8F2C
:100D30007B8FDF01CB0181DF1E2F1130B9F4BDD2D3
:100D4000B296E254FE4F9F01F901E481E03071F068
:100D5000D9011896A5D4EE8BFF8B688F798F89D334
:100D6000A88DB98D8A8D9B8D68DF1E2F133011F4ED
:100D7000E1E0BDC0103039F431D39D968DD4E03020
:100D8000A2E0FA0711F0EDE0B2C028D3D896EDD278
:100D90008AD38ED3C0D429F421D3AA5BBF4F80D489
:100DA00082D386D3AE81BF811A9685D486D2E2A93A
:100DB000AE81BF811396EC9380D2E381F0E07DD3C6
:100DC00008D40CD470D30AD3D09666D4AE89BF8928
:100DD000888D998D1AD3CDD3AE81BF8152966BD4B5
:100DE0006CD2E7A5AE81BF811296EC93F7D2D39671
:100DF00053D4AE81BF811896ED93FC93EFD2D59674
:100E0000B4D260D3EE85FF856889798984D429F4CA
:100E1000E5D2AE5BBF4F44D455D3E0D2D0963CD49C
:100E2000AE85BF8588899989F0D268D4ACD345D383
:100E3000AAD37F936F93FF93EF9349D3AF91BF9161
:100E40008F919F91E2D2A4D338D29FD2C2D3FFD345
:100E5000EE5FFF4F6F4F7F4FEA87FB876C877D8781
:100E6000AE81BF811E9627D411E037D3A73FEFE0B4
:100E7000BE07E0E08E07E0E09E0708F012E02DD309
:100E8000A73FEFEFBE07E0E08E07E0E09E0708F027
:100E900013E0133029F4A2D2A25BBF4F01D401C0EA
:100EA00021D3AE81BF81569606D41CD37F936F9316
:100EB000FF93EF930CD3AF91BF918F919F91A5D2E8
:100EC00058D3AE81BF815A96F6D388D21C9386D26E
:100ED0005E96C9D2A2E6B3E0ED91FD913196FE9304
:100EE000EE93AE81BF811696ED93FC93E0E02ED495
:100EF0006F960895D9D1DED1309769F0AA81BB8170
:100F0000EC91E03041F0D6D1A681B781E881F9813A
:100F1000EA17FB0711F0E9E008C0CCD1A181CDDAD6
:100F2000E17011F0E3E001C0E0E024960895BCD147
:100F30000AD4AC81A13010F0EBE01CC0EC81A8D247
:100F40000D911C91002E012A11F0D801A9D2B2D125
:100F5000309719F0AA81BB81A3D2EC81A0E6B3E05F
:100F6000F0E0EE0FFF1FEA0FFB1FAA81BB81A083F9
:100F7000B183E0E0EFD325960895AA93A297E1D339
:100F8000B9D274D2EEA1E170EEA3FE01B79689D179
:100F9000FE0172964FD280DE50D211F0E12F51C087
:100FA000FE013496ECA3FDA3FE0170967AD1A2D285
:100FB000E0DD43D211F0E12F44C02AA13BA1022E73
:100FC000032A21F0F901E385E07111F0E4E039C072
:100FD000EEA1A9A5BAA51496EC93D9015496C5D152
:100FE000F3D27F936F93FF93EF93D9015A9654D323
:100FF000AF91BF918F919F9108D2CFD2A9A5BAA5E9
:101000001E9659D3D9015C964BD3A9A5BAA51A96B9
:1010100052D370D2169627D26DD21596EFEFEC937D
:1010200069D2569620D2E889F98964D214D2A88967
:10103000B989169631D3A9A5BAA51296ED93FC935A
:10104000E0E086D3AB9608952FD12E9778D3E88D24
:10105000F98D36D1AC89BD8909D24FD2F1D150D2A8
:1010600052D211F0E12F05C1EA8DFB8DA481A07849
:1010700011F0E2E0FEC04BD2A481A17011F4E7E0D0
:10108000F8C045D2D2D19F938F93BF93AF9342D2F2
:10109000EF91FF916F917F9176D2E887F9876A8708
:1010A0007B8716D1AE89BF89882799273ED318F44C
:1010B000C9D1EE8BFF8BEE89FF89309709F4D8C038
:1010C00029D2FD01BC01F170309709F086C01FD212
:1010D000058013D2E1D2E2810E1630F11BD21FD36C
:1010E00021F40BD21E96DCD204C007D2A9D118D2AB
:1010F00013DBE88BF98B6A8B7B8B18D2F8D018F452
:101100001AD2E2E0B6C012D278D119F414D2E1E0DA
:10111000B0C0E889F9896A897B89AA8DBB8D52960E
:10112000CAD2EBD11596BCD1E8D18AD1F9D15FDB17
:1011300008D20CD2F0D219F4FED1E2E09AC00BD260
:10114000AC85BD858E859F8544D213D2FAD1AE89F8
:10115000BF89E0E0F2E068D2AF01042E052A99F1E0
:10116000FAD1E40FF51F0F01C8D196D2E281D00168
:10117000F0E0EA17FB0740F4C0D18ED206D1DF01C0
:10118000EAD1AE1BBF0BAD01B8D186D2E181EA93A3
:10119000EF81F88586D0EF85F88969897A89A4D2AC
:1011A000A42F95D9E03019F0C6D1E1E062C0A5D1F5
:1011B0001596EC91E40FEC93FA01EE0FFF1FFE2F52
:1011C000E0E09F0135C0C2D1AA8DBB8D569673D287
:1011D00094D11596EC91EF5FEC938FD116965CD27B
:1011E000F170A0E0B2E0AE1BBF0B9D01EE89FF895C
:1011F000E217F30710F42E893F897FD121D180D1E6
:10120000A689B789808D918D5CDAE03019F093D191
:10121000E1E02FC02ED1AC8DBD8D3ED2B2960F0134
:1012200016963AD2F170E00DF11D3BD0D901E0D90C
:10123000F901D4D0EA0FFB1F43D069D136960F01D4
:10124000DF012ED2DF01CB01F901DFD092D1D00135
:1012500032D2AC89BD89ED91FD91E20FF31FFE936F
:10126000EE93EE89FF89E21BF30BEE8BFF8B23CF0E
:10127000E0E06CD26C96089517D01A93A981BA81D8
:10128000DFD0EB81FC813FD119F4A981BA81EED086
:10129000E12F188123960895FE017496FA93EA933C
:1012A0000895FA93EA930895BA93AA930895EC8166
:1012B000FD810895EA81FB810895EE81FF81089503
:1012C000EE83FF830895ED81FE816F817885089517
:1012D000E885F9856A857B85089506D2A1E0F7D86F
:1012E000E0300895A885B9858A859B850895A23048
:1012F000E0E0BE07E0E08E07E0E09E070895AC85E1
:10130000BD850895EC85FD85CCDFD901E0E0F2E0F4
:101310008BD1AE81BF8188859985662777272ED1AD
:10132000D0D9E0300895EBDF9296F901F170AE0F5D
:10133000BF1F0895EC85FD85B4DFAA85BB858C852C
:101340009D85089584D1AE81BF818885998516D108
:10135000B8D9E0300895A885B98508955FD1F170B6
:10136000CEDF9296AE0FBF1F089596D166277727DE
:101370000895A685B785808991890895ABD1089590
:10138000E0E0F0E060E070E00895E281F0E00895D0
:10139000AC81BD81089584D1EA83FB836C837D8316
:1013A0000895AA81BB818C819D810895D4DF74D179
:1013B00008953E96DF0174D1F4DFBCD10895EA812F
:1013C000FB816C817D81A7D10895EA81FB816C81CD
:1013D0007D81A885B9851A966ED1E8CFAE81BF818F
:1013E00008955FDFAC81BD818E819F81089594D97E
:1013F000EA83FB836C837D83D4CFAF3FEFEFBE07DF
:10140000EFEF8E07EFEF9E07089566277727089581
:10141000EF70F070EE0FC6D0EA0FFB1F0895AF819A
:10142000B8850895FCDF38D10895A285B3858485F9
:101430009585089536DFA0E008951E2F1030089599
:101440002BD12FCFE885F9850895E22F2F5FF0E0AB
:10145000E40FF51F0895ED93FC93089528DF31966E
:10146000EC83FD8308958CDF26D10895E0E0F0E061
:10147000F2CF23DF16CF14D1EF7FFF7F6F7F707025
:10148000E634A1E4FA07A4E56A07A0E07A07089524
:10149000A0E6B3E0F0E0EE0FFF1FAE0FBF1F089510
:1014A000E0E0EC930895EA8BFB8B6C8B7D8B0895C9
:1014B000EA89FB896C897D890895AA89BB898C8911
:1014C0009D890895EE87FF87688B798B0895F5DEF7
:1014D000A085B185FD016FD00895AA85BB858C8557
:1014E0009D850895EADEA289B38984899589E0DF24
:1014F00040D00895A9A5BAA50895AA8DBB8D0895D9
:10150000EC8DFD8D0895A281B381F4DC96CFEA8D38
:10151000FB8D0895FCDFA681B781808591850895B4
:10152000EFDFA289B389848995890895A889B9894B
:101530008A899B890895E1DF1496EC91E068EC9329
:101540000895EC87FD876E877F870895EC85FD857C
:101550006E857F850895DBDFE581F0E008951096C4
:1015600039F080ED97E00197F1F7A8951197C9F749
:101570000895EA0FFB1F681F791F0895AE0FBF1F64
:10158000861F971F0895EA1BFB0B680B790B0895C4
:10159000AE1BBF0B860B970B0895EA2BFB2B682B1A
:1015A000792B0895EE0FFF1FEE0FFF1FEE0FFF1FA9
:1015B000EE0FFF1F0895F695E795F695E795F695DA
:1015C000E795F695E79508956E2F7F2FE0E0F0E020
:1015D00008956F2F660F660B762F08957A9F702DF2
:1015E0006B9F700DF89F700DE99F700D6A9F602DC5
:1015F000710DFB9F600D711DE89F600D711D8827A7
:10160000FA9FF02D610D781FEB9FF00D611D781F83
:10161000EA9FE02DF10D681F781F08956E2F6A9FD5
:10162000F0016B9FF00D08950024112490E1AA0FA2
:10163000BB1F001C111C0E1A1F0A18F40E0E1F1ED1
:1016400001C0A1609A9599F7FD01D00108953F93DB
:101650004F935F93002411244427552730E2AA0FAB
:10166000BB1F881F991F001C111C441F551F0E1AF9
:101670001F0A460B570B28F40E0E1F1E461F571F3E
:1016800001C0A1603A9559F7FD01BC01D001CA0122
:101690005F914F913F910895ED91FC9111970895BD
:1016A000ED91FD916D917C9113970895ED91FD91D0
:1016B0006D917D910895ED93FD936D937C930895C5
:1016C0007E936E93FE93EE930895E881F9816A818B
:1016D0007B810895A881B9818A819B810895E883DF
:1016E000F9836A837B8308957A936A93FA93EA93E2
:1016F00008959A938A93BA93AA930895182E862FE1
:10170000612D192E972F712D1B2EBF2FF12D1A2E03
:10171000AE2FE12D08953097604070400895002469
:101720000A160B06080609060895EA17FB0768075C
:1017300079070895AE17BF078607970708955A934C
:101740004A933A932A931A930A9308955D814C81A0
:101750003B812A8119810881089509911991089581
:00000001FF
